:020000040000FA
:10000000F034E0340034FF34C034FF34FF34FF34C4
:10001000FF34FF34FF3407349034023400340F349B
:10002000B4340534FF34FF341F348B34FF34FF34D1
:10003000FF34EB34FF34FF34003408342C34003404
:1000400000342A340034583400348A3400345834AC
:1000500000342A340034583400340034003400347E
:1000600000340034003400347034FF34FF34FF3483
:10007000FF34FF34FF34FF34FF34FF34FF34FF34E8
:0C008000FF34FF34FF34FF34FF340E3433
:00000001FF
