:020000040000FA
:10000000F034FF340034FF34F03400340034FF3473
:10001000FF34FF34FF3407349034023400340F349B
:100020003F340134FF34FF340334EB34FF34FF3406
:10003000FF34FF34FF34FF34FF34FF34FF34FF3428
:1000400000340A340034503400340A34003450345C
:1000500000340A34003450340034003400340034A6
:100060000034003400340034F034FF34FF34FF3403
:10007000FF34FF34FF34FF34FF34FF34FF34FF34E8
:10008000FF34FF34FF34FF34FF3426340000000017
:02400E00FB3F76
:00000001FF
